:020000040800F2
:1000000000000220D5190008E9080008ED080008E2
:10001000F1080008F5080008F908000800000000D1
:10002000000000000000000000000000FD080008C3
:10003000010900080000000005090008090900087E
:10004000251A0008251A0008251A0008251A000894
:10005000251A0008251A0008251A0008251A000884
:10006000251A0008251A0008251A0008251A000874
:10007000251A0008251A0008251A0008251A000864
:10008000251A0008251A0008251A0008251A000854
:10009000251A0008251A0008251A0008251A000844
:1000A000251A0008251A0008251A0008251A000834
:1000B000251A0008251A0008251A0008251A000824
:1000C000251A0008251A0008251A0008251A000814
:1000D000251A0008251A0008251A0008251A000804
:1000E000251A0008251A0008251A0008251A0008F4
:1000F000251A0008251A0008251A0008251A0008E4
:10010000251A0008251A0008251A0008251A0008D3
:10011000251A0008251A0008251A0008251A0008C3
:10012000251A0008251A0008251A0008251A0008B3
:10013000251A0008251A0008251A0008251A0008A3
:10014000251A0008251A0008251A0008251A000893
:10015000251A0008251A0008251A0008251A000883
:10016000251A0008251A0008251A0008251A000873
:10017000251A0008251A0008251A000800000000AA
:08018000251A0008251A0008E9
:1001880010B5054C237833B9044B13B10448AFF3C9
:1001980000800123237010BD0C0000200000000027
:1001A800841A0008084B10B51BB108490848AFF37A
:1001B80000800848036803B910BD074B002BFBD02B
:1001C800BDE81040184700BF0000000010000020E4
:1001D800841A00080C0000200000000053B94AB936
:1001E800002908BF00281CBF4FF0FF314FF0FF3037
:1001F80000F07EB9ADF1080C6DE904CE00F006F808
:10020800DDF804E0DDE9022304B070472DE9F0478A
:100218008C460E460446089D002B50D18A4217464C
:100228006CD9B2FA82FEBEF1000F0BD0CEF12004D9
:1002380020FA04F401FA0EF644EA060C02FA0EF764
:1002480000FA0EF44FEA1749220CBCFBF9F01FFA2A
:1002580087F809FB10C642EA064600FB08F3B342DA
:1002680009D9F61900F1FF3280F02281B34240F239
:100278001F8102383E44F61AA2B2B6FBF9F309FB15
:10028800136642EA064403FB08F8A04509D9E419B5
:1002980003F1FF3280F00A81A04540F20781023B5A
:1002A8003C44C8EB040443EA00400021002D62D01E
:1002B80024FA0EF400232C606B60BDE8F0878B42B3
:1002C80007D9002D55D0002185E841000846BDE832
:1002D800F087B3FA83F1002940F09080B34202D34B
:1002E800824200F2F880841A66EB03060120B446C5
:1002F800002D40D085E81010BDE8F08712B901271D
:10030800B7FBF2F7B7FA87FEBEF1000F35D1F31B42
:100318004FEA17481FFA87FC0121B3FBF8F0220CBB
:1003280008FB103642EA06460CFB00F3B34207D935
:10033800F61900F1FF3202D2B34200F2CE80104625
:10034800F61AA2B2B6FBF8F308FB136642EA0644B3
:100358000CFB03FCA44507D9E41903F1FF3202D2D0
:10036800A44500F2B5801346CCEB040443EA0040F0
:100378009CE729462846BDE8F087CEF1200106FA19
:100388000EF307FA0EF720FA01F94FEA1748CE40A4
:1003980049EA0309B6FBF8FA4FEA194408FB1A665A
:1003A8001FFA87FC44EA06430AFB0CF29A4200FA59
:1003B8000EF40AD9DB190AF1FF3180F087809A42DE
:1003C80040F28480AAF1020A3B449B1A1FFA89F979
:1003D800B3FBF8F108FB113349EA034301FB0CF6C0
:1003E8009E4207D9DB1901F1FF326BD29E4269D9CF
:1003F80002393B449B1B41EA0A418EE7C1F1200EBA
:1004080022FA0EF48B40234320FA0EF706FA01F481
:100418004FEA134C26FA0EF63C43B6FBFCF9270CC0
:100428000CFB19661FFA83F847EA064609FB08F72A
:10043800B74202FA01F200FA01FA08D9F61809F1EE
:10044800FF3041D2B7423FD9A9F102091E44F61B39
:10045800A0B2B6FBFCF40CFB146640EA064704FBAA
:1004680008F8B84507D9FF1804F1FF3028D2B84575
:1004780026D9023C1F4444EA0940C8EB0707A0FB01
:1004880002894F4544464E4614D329D065B3BAEB8A
:10049800040367EB060707FA0EFECB40CF404EEA8F
:1004A800030385E888000021BDE8F0871346F8E6D5
:1004B8001046E0E6B8EB020469EB03060138E5E70D
:1004C8000446D8E7114695E78146C0E78A467CE7A7
:1004D800023B3C4448E708460AE702383E442FE717
:1004E800C245E7D33E46D1E72946BDE8F08700BFBD
:1004F800704700BF2DE9F04F8DB000240794089491
:1005080009940A940B940194844B1A6B42F01002DC
:100518001A631A6B02F010020192019A02941A6B84
:1005280042F004021A631A6B02F004020292029A61
:1005380003941A6B42F080021A631A6B02F080026D
:100548000392039A04941A6B42F001021A631A6B1D
:1005580002F001020492049A05941A6B42F0020216
:100568001A631A6B02F002020592059A06941A6B36
:1005780042F008021A631B6B03F008030693069BFC
:10058800674E224640F29351304600F021FF224642
:100598004FF44451634800F01BFF22464FF6FF71A9
:1005A800614800F015FF22464FF4C0515F4800F043
:1005B8000FFF40F2935307934FF00108CDF82080C6
:1005C80009940A9407A9304600F01AFE602307939D
:1005D8000225089509940A9403270B9707A9304622
:1005E80000F00EFE4FF444530793CDF82080099491
:1005F8000A9407A94B4800F003FE4FF420630793C1
:10060800089509940A94CDF82C8007A9304600F083
:10061800F7FD4FF4704BCDF81CB00894099407A966
:10062800304600F0EDFD4FF4406307934FF0120A97
:10063800CDF820A009940A974FF00409CDF82C9022
:10064800A6F5406607A9304600F0DAFDCDF81CB0E3
:10065800089509940A9705230B9307A9304600F0DB
:10066800CFFD4FF6FF730793CDF8208009940A94C5
:1006780007A92D4800F0C4FD4FF0C00BCDF81CB001
:10068800089509940A940B9707A9264800F0B8FD25
:100698004FF400730793089509940A940B9407A9DB
:1006A800204800F0ADFD4FF4807307930895099436
:1006B8000A940B9407A91D4800F0A2FD4FF4C053FB
:1006C8000793CDF8208009940A9407A9174800F0E9
:1006D80097FD30230793089509940A940B9507A969
:1006E800304600F08DFDCDF81CB0089509940A94A9
:1006F8000B9507A9304600F083FD4FF4407307932C
:10070800CDF820A009940A97CDF82C9007A9304677
:1007180000F076FD0DB0BDE8F08F00BF0038024054
:100728000010024000080240000C02400000024095
:1007380072B6FEE700B585B00023009301930293DB
:1007480003931448144A02604FF480324260836075
:100758000361037680F82030C362104A8262C36066
:100768000122C26180F83030426100F085FF08B193
:10077800FFF7DEFF0923009301230193002302936F
:100788006946044800F0A2FF08B1FFF7D1FF05B0A1
:100798005DF804FB28000020002001400100000F44
:1007A80008B50A480A4B03604FF4E133436000235D
:1007B8008360C36003610C2242618361C36101F0FD
:1007C800D3F808B1FFF7B4FF08BD00BFB40000209C
:1007D800004C004008B50A480A4B03604FF4E13367
:1007E800436000238360C36003610C22426183611C
:1007F800C36101F0B9F808B1FFF79AFF08BD00BF5F
:10080800700000200010014000B595B03022002192
:1008180008A801F02BF9002303930493059306938A
:1008280007930193254A116C41F080511164126CB1
:1008380002F080520192019A0293214B1A6842F405
:1008480080421A601B6803F480430293029B0123D1
:1008580008934FF48033099302220E924FF48003D9
:100868000F9304231093A82111911292139308A8AF
:1008780000F024F908B1FFF75BFF0F23039302236D
:100888000493002305934FF4A05306934FF4805329
:100898000793052103A800F0D9FB08B1FFF748FF2B
:1008A80000224FF4C001104600F01CFB0022114644
:1008B800012000F017FB15B05DF804FB003802407A
:1008C8000070004008B500F009FEFFF79DFFFFF734
:1008D80011FEFFF72FFFFFF763FFFFF77BFFFEE730
:1008E800FEE700BFFEE700BFFEE700BFFEE700BF70
:1008F800FEE700BF704700BF704700BF704700BFEA
:1009080008B500F005FE08BD82B0002100910B4B30
:100918005A6C42F480425A645A6C02F48042009243
:10092800009A01911A6C42F080521A641B6C03F011
:1009380080530193019B02B0704700BF003802400A
:1009480030B58BB00023059306930793089309935A
:10095800026803F1804303F590339A4241D10024A1
:10096800019403F58C335A6C42F480725A645A6CC1
:1009780002F480720192019A02941A6B42F0040206
:100988001A631A6B02F004020292029A03941A6B19
:1009980042F001021A631A6B02F001020392039AF1
:1009A80004941A6B42F002021A631B6B03F00203F1
:1009B8000493049B3F2305930325069505A90A483C
:1009C80000F01EFCFF2305930695079405A9074828
:1009D80000F016FC05950695079405A9044800F053
:1009E8000FFC0BB030BD00BF000802400000024001
:1009F8000004024000B58BB00023059306930793CB
:100A0800089309930368284A934223D1002101914E
:100A1800264B1A6C42F400221A641A6C02F4002263
:100A28000192019A02911A6B42F004021A631B6B3D
:100A380003F004030293029B4FF4406305930223DF
:100A48000693032308930823099305A9184800F07F
:100A5800D7FB25E0174A934222D100210391134B7B
:100A68005A6C42F010025A645A6C02F01002039257
:100A7800039A04911A6B42F001021A631B6B03F08C
:100A880001030493049B4FF4C06305930223069368
:100A9800032308930723099305A9074800F0B0FB2F
:100AA8000BB05DF804FB00BF004C0040003802406A
:100AB800000802400010014000000240002800F039
:100AC800DD8170B582B00446036813F0010F5AD077
:100AD800A04B9B6803F00C03042B0AD09D4B9B682A
:100AE80003F00C03082B0DD19A4B5B6813F4800FAD
:100AF80008D0984B1B6813F4003F44D06368002B60
:100B080041D1BDE16368B3F5803F05D1914A1368CF
:100B180043F48033136015E0B3F5A02F09D18D4B52
:100B28001A6842F480221A601A6842F480321A6005
:100B380008E0884B1A6822F480321A601A6822F496
:100B480080221A6063687BB100F0EEFC054605E080
:100B580000F0EAFC401B642800F294817D4B1B687E
:100B680013F4003FF4D00EE000F0DEFC054605E08B
:100B780000F0DAFC401B642800F28681754B1B6884
:100B880013F4003FF4D1236813F0020F50D0714BD7
:100B98009B6813F00C0F0AD06E4B9B6803F00C0394
:100BA800082B16D16B4B5B6813F4800F11D1694B7E
:100BB8001B6813F0020F03D0E368012B40F0668135
:100BC800644A136823F0F803216943EAC1031360F8
:100BD8002EE0E368D3B101225F4B1A6000F0A4FC59
:100BE800054605E000F0A0FC401B022800F25081F9
:100BF800584B1B6813F0020FF4D0564A136823F0C1
:100C0800F803216943EAC103136011E00022524B43
:100C18001A6000F089FC054605E000F085FC401BE1
:100C2800022800F237814B4B1B6813F0020FF4D1F6
:100C3800236813F0080F26D0636993B10122474B4C
:100C48001A6000F071FC054605E000F06DFC401BE1
:100C5800022800F221813F4B5B6F13F0020FF4D0A2
:100C680011E000223D4B1A6000F05EFC054605E0ED
:100C780000F05AFC401B022800F21081354B5B6FD4
:100C880013F0020FF4D1236813F0040F7DD0314B19
:100C98001B6C13F0805F0DD1002301932D4B1A6C50
:100CA80042F080521A641B6C03F080530193019B3D
:100CB800012500E000252A4B1B6813F4807F13D11F
:100CC800274A136843F48073136000F02DFC06462E
:100CD80005E000F029FC801B022800F2E180204B8F
:100CE8001B6813F4807FF4D0A368012B05D1194A3F
:100CF800136F43F00103136714E0052B09D1154B5B
:100D08001A6F42F004021A671A6F42F001021A675A
:100D180008E0104B1A6F22F001021A671A6F22F0CE
:100D280004021A67A3688BB100F0FEFB064607E0D1
:100D380000F0FAFB801B41F28833984200F2B2803F
:100D4800044B1B6F13F0020FF2D018E000F0ECFB1D
:100D580006460FE00038024000004742800E474236
:100D68000070004000F0E0FB801B41F2883398429D
:100D780000F29A80594B1B6F13F0020FF2D125B184
:100D8800564A136C23F080531364A369002B00F0B8
:100D98008D80524A926802F00C02082A48D0022B31
:100DA80033D100224E4B1A6000F0BEFB054604E02A
:100DB80000F0BAFB401B02287AD8484B1B6813F096
:100DC800007FF5D1E269236A1343626A43EA82131A
:100DD800A26A5208013A43EA0243E26A43EA02631A
:100DE8003E4A536001223E4B1A6000F09DFB0446C8
:100DF80004E000F099FB001B02285BD8374B1B6806
:100E080013F0007FF5D0002065E00022344B1A6013
:100E180000F08AFB044604E000F086FB001B022871
:100E28004AD82E4B1B6813F0007FF5D1002052E002
:100E3800012B43D0294A526842D002F48003E16969
:100E48008B423FD102F03F03216A8B423CD1616A59
:100E580047F6C0731340B3EB811F37D102F440311A
:100E6800A36A5B08013BB1EB034F31D102F070621A
:100E7800E36AB2EB036F2DD001202CE0012070470C
:100E8800012028E0032026E0032024E0012022E0BE
:100E9800032020E003201EE003201CE003201AE0CA
:100EA800032018E0032016E0032014E0002012E0DD
:100EB800032010E003200EE003200CE001200AE0EC
:100EC800012008E0012006E0012004E0012002E002
:100ED800012000E0002002B070BD00BF00380240D1
:100EE8006000474270B588B00C461646F8B9002332
:100EF8000193204D2A6B42F001022A632A6B02F00B
:100F080001020192019A4FF4807203920222049224
:100F1800032206920593079303A9174800F070F976
:100F2800AB6823F0EC6334431C43AC601FE0002340
:100F38000293104D2A6B42F004022A632A6B02F0D6
:100F480004020292029A4FF400720392022204925F
:100F5800032206920593079303A9084800F050F965
:100F6800AB6823F0784344EAC6041C43AC6008B07D
:100F780070BD00BF00380240000002400008024077
:100F880038B52F4B9B6803F00C03042B55D0082B66
:100F980001D02C4838BD2A4B5A6802F03F025B68E2
:100FA80013F4800F20D0264B5B68C3F38813DC0052
:100FB8000025690141EAD4616001041B61EB050564
:100FC800A90141EA9461A001001B61EB0501C01869
:100FD80041F100014B0243EAD0534402204619462E
:100FE8000023FFF7FBF81FE0154B5B68C3F388137A
:100FF800DC000025690141EAD4616001041B61EB52
:101008000505A90141EA9461A001001B61EB0501F6
:10101800C01841F100018B0243EA90538402204634
:1010280019460023FFF7DAF8054B5B68C3F3014361
:1010380001335B00B0FBF3F038BD034838BD00BF97
:10104800003802400024F40000127A00002800F062
:10105800988070B50446524B1B6803F007038B4217
:1010680008D2CBB24E4A1370136803F007039942B3
:1010780040F08980236813F0020F17D013F0040F93
:1010880004D0484A936843F4E0539360236813F00C
:10109800080F04D0434A936843F46043936041487F
:1010A800836823F0F002A368134383600D46236826
:1010B80013F0010F2FD06268012A05D1394B1B6844
:1010C80013F4003F0ED160E0931E012B05D8354B79
:1010D8001B6813F0007F05D159E0324B1B6813F0F1
:1010E800020F56D02F498B6823F0030313438B60FC
:1010F80000F01AFA064606E000F016FA801B41F2E4
:101108008833984247D8274B9B6803F00C036268E2
:10111800B3EB820FF0D1224B1B6803F007039D420B
:1011280007D2EAB21E4B1A701B6803F007039D42F0
:1011380033D1236813F0040F06D01A498B6823F4BF
:10114800E052E36813438B60236813F0080F07D05D
:10115800144A936823F46043216943EAC103936006
:10116800FFF70EFF0F4B9B68C3F303130E4AD35CC4
:10117800D8400E4B18600E4B186800F089F9002013
:1011880070BD01207047012070BD012070BD012095
:1011980070BD012070BD032070BD012070BD00BF6F
:1011A800003C0240003802409C1A00080800002059
:1011B80000000020014B1868704700BF080000209D
:1011C80008B5FFF7F7FF044B9B68C3F38223034A74
:1011D800D35CD84008BD00BF00380240AC1A0008F4
:1011E80008B5FFF7E7FF044B9B68C3F34233034A94
:1011F800D35CD84008BD00BF00380240AC1A0008D4
:10120800F0B583B00023D5E001229A400C6802EAC9
:101218000405AA4240F0CD804C6804F00304013C68
:10122800012C15D887684FEA430E032606FA0EF6F6
:1012380027EA0606CC6804FA0EF43443846044684E
:1012480024EA02024C68C4F300149C402243426022
:101258004A6802F00302032A09D0C6685F00032423
:10126800BC4026EA04048A68BA402243C2604A683D
:1012780002F00302022A0FD1DC08083450F8247067
:1012880003F0070296000F22B24027EA02070A6914
:10129800B2403A4340F8242004685F000326BE4069
:1012A80024EA06064A6802F0030404FA07F2324305
:1012B80002604A6812F4403F7BD000220192404A03
:1012C800546C44F480445464526C02F48042019299
:1012D800019A9E08B41C3B4A52F8247003F003029A
:1012E80092000F24944027EA0407374CA0421DD0EF
:1012F80004F58064A0421BD004F58064A04219D094
:1013080004F58064A04217D004F58064A04215D08B
:1013180004F58064A04213D004F58064A04211D083
:1013280004F58064A0420FD107240EE000240CE0ED
:1013380001240AE0022408E0032406E0042404E06F
:10134800052402E0062400E0082404FA02F23A43E5
:1013580002361C4C44F826201C4A9468EA4304EAE6
:1013680002064F6817F4801F01D045EA0406174C9F
:10137800A660E46802EA04064F6817F4001F01D06B
:1013880045EA0406114CE660646802EA04064F6800
:1013980017F4003F01D045EA04060C4C6660246847
:1013A80022404E6816F4803F01D045EA0402074CFB
:1013B800226001330F2B7FF627AF03B0F0BD00BFCB
:1013C800003802400038014000000240003C014063
:1013D8000AB181617047090481617047074AD3687F
:1013E80023F4E0631B041B0C000200F4E0601843C4
:1013F80040F0BF6040F40030D060704700ED00E07E
:1014080030B4164BDB68C3F30223C3F10704042C82
:1014180028BF04241D1D062D01D9DD1E00E000256E
:10142800012303FA04F4013C2140A940AB40013BED
:101438001A400A43002808DB1201D2B200F16040CA
:1014480000F5614080F8002305E000F00F0012016C
:10145800D2B2034B1A5430BC704700BF00ED00E015
:1014680014ED00E00138B0F1807F0AD2064B5860D5
:10147800F021064A82F823100020986007221A609B
:1014880070470120704700BF10E000E000ED00E069
:1014980010B504460E4B18784FF47A73B3FBF0F38B
:1014A8000C4A1068B0FBF3F0FFF7DCFF58B90F2CBB
:1014B8000BD8002221464FF0FF30FFF7A1FF064B63
:1014C8001C60002010BD012010BD012010BD00BF10
:1014D80004000020080000200000002008B50B4B85
:1014E8001A6842F400721A601A6842F480621A603C
:1014F8001A6842F480721A600320FFF76FFF0F200A
:10150800FFF7C6FFFFF700FA002008BD003C0240C5
:10151800034A1368034909780B441360704700BFF6
:10152800F800002004000020014B1868704700BF35
:10153800F8000020034AD2F8883043F47003C2F858
:101548008830704700ED00E0494B5A6822F4403279
:101558005A60596842680A435A600268536823F41B
:101568008073536002685368016943EA012353603A
:101578000268536823F040735360026851688368B7
:101588000B4353600268936823F400639360026816
:101598009168C3680B439360826A364B9A4214D0B1
:1015A8000268936823F07063936002689168836AA5
:1015B8000B4393600268936823F04053936002687A
:1015C8009168C36A0B43936009E00268936823F04B
:1015D800706393600268936823F0405393600268D5
:1015E800936823F00203936002689368017E43EADC
:1015F8004103936090F820308BB10268536843F43C
:10160800006353600268536823F4604353600168C1
:101618004A68436A013B42EA43334B6004E002688C
:10162800536823F4006353600268D36A23F4700399
:10163800D3620168CA6AC369013B42EA0353CB62B9
:101648000268936823F4007393600268936890F8C3
:10165800301043EA412393600268936823F480635F
:10166800936002689368416943EA812393607047F5
:10167800002301400100000F30B310B50446036C8D
:101688002BB9FFF75DF90023636484F83C30236CC1
:1016980013F0100F13D1236C23F4885323F00203A3
:1016A80043F0020323642046FFF74EFF00206064E6
:1016B800236C23F0030343F00103236400E00120BB
:1016C800002384F83C3010BD0120704730B482B04C
:1016D8000023019390F83C30012B00F0B2800123E5
:1016E80080F83C300B68092B17D90568EA689BB26B
:1016F80003EB43031E3B072404FA03F322EA030324
:10170800EB600468E5688A680B8803EB43031E3BBB
:1017180002FA03F32B43E36013E005682A699BB2DE
:1017280003EB4303072404FA03F322EA03032B61C0
:10173800046825698B680A8802EB420293402B43B0
:1017480023614B68062B16D805686A6B03EB830385
:10175800053B1F2404FA03F322EA03036B630468BE
:10176800656B4B6803EB8303053B0A8802FA03F3B6
:101778002B4363632EE00C2B16D805682A6B03EB0A
:101788008303233B1F2404FA03F322EA03032B6396
:101798000468256B4B6803EB8303233B0A8802FA32
:1017A80003F32B43236315E00568EA6A03EB83031D
:1017B800413B1F2404FA03F322EA0303EB620468A3
:1017C800E56A4B6803EB8303413B0A8802FA03F39B
:1017D8002B43E36202681D4B9A4207D10B68122B18
:1017E80004D11B4A536843F4800353600268174BC3
:1017F8009A4221D10B68103B012B1DD8144A53681B
:1018080043F4000353600B68102B15D1114B1B6870
:1018180002F1467202F52E3202F28332A2FB032352
:101828009B0C03EB83035A00019202E0019B013BEE
:101838000193019B002BF9D1002380F83C30184616
:1018480000E0022002B030BC704700BF0020014019
:101858000023014008000020F8B5054601680B691F
:1018680023F44052C36813430B6181680369194329
:1018780043691943C36919430068C26822F41643CF
:1018880023F00C030B43C36029684B6923F44072AF
:10189800AB6913434B612B68314A934203D002F57D
:1018A8008062934202D1FFF79BFC01E0FFF788FCBE
:1018B800EB69B3F5004F2AD12C680021061841EBDB
:1018C800010736184F41FB0043EA5673F2001646EB
:1018D8001F466A68002392185B4180197941FEF718
:1018E8007DFC204BA3FB00125109642202FB11026C
:1018F800D2003232A3FB02235B095A0002F4F872C9
:1019080002EB011203F007031344A360F8BD2C682F
:101918000021061841EB010736184F41FB0043EA46
:101928005673F20016461F466B689A009B0F801983
:101938007941FEF753FC0B4BA3FB002149096422B4
:1019480002FB110212013232A3FB02235B0903F0EE
:10195800F00202EB011103F00F030B44A360F8BD82
:10196800001001401F85EB5168B310B5044690F88C
:101978003D3013F0FF0F04D1002380F83C30FFF70F
:1019880039F8242384F83D302268D36823F40053BF
:10199800D3602046FFF760FF2268136923F4904361
:1019A80013612268536923F02A0353612268D368BC
:1019B80043F40053D36000202064202384F83D3092
:1019C80084F83E3010BD0120704700BFDFF834D0E6
:1019D8000D480E490E4A002302E0D458C45004337F
:1019E800C4188C42F9D30B4A0B4C002301E0136056
:1019F8000432A242FBD3FFF79DFD00F011F8FEF779
:101A080061FF704700000220000000200C00002049
:101A1800C41A00080C000020FC000020FEE70000AB
:101A280070B50E4B0E4CE41AA41000251E46A542B4
:101A380004D056F8253098470135F8E700F01EF82D
:101A4800084C094BE41AA41000251E46A54204D0F0
:101A580056F8253098470135F8E770BDBC1A0008DC
:101A6800BC1A0008C01A0008BC1A00080244034641
:101A7800934202D003F8011BFAE77047F8B500BF9C
:101A8800F8BC08BC9E467047F8B500BFF8BC08BC57
:041A98009E467047AF
:101A9C000000000000000000010203040607080912
:081AAC00000000000102030428
:081AB40060E7FF7F0100000064
:041ABC00AD01000870
:041AC0008901000890
:0C1AC40010000000010000000024F400ED
:04000005080019D501
:00000001FF
